:020000040800F2
:1000000080040020ED0100088F120008850D000813
:100010008D1200085902000839160008000000007F
:10002000000000000000000000000000A71500080C
:10003000F70200080000000091120008A91500084E
:10004000070200080702000807020008070200086C
:10005000070200080702000807020008070200085C
:10006000070200080702000807020008070200084C
:10007000070200080702000807020008070200083C
:10008000070200080000000007020008070200083D
:10009000070200080702000807020008070200081C
:1000A000070200080702000807020008070200080C
:1000B00007020008070200080702000807020008FC
:1000C00007020008070200080702000807020008EC
:1000D00007020008070200080702000807020008DC
:1000E00007020008070200080702000807020008CC
:1000F00007020008070200080702000800000000CD
:1001000000000000070200080000000007020008CD
:1001100007020008000000000702000807020008AC
:10012000070200080702000807020008070200088B
:10013000070200080000000000000000070200089D
:10014000070200080702000800000000000000008D
:10015000000000000000000000000000000000009F
:10016000000000000000000000000000070200087E
:10017000070200080000000000000000000000006E
:10018000000000000702000800000000000000005E
:10019000000000000000000000000000000000005F
:1001A000000000000000000007020008070200082D
:1001B000070200080702000807020008000000000C
:1001C000000000000702000800000000000000001E
:1001D0000702000807020008DFF80CD000F02AF838
:1001E0000048004779160008800400200648804730
:1001F00006480047FEE7FEE7FEE7FEE7FEE7FEE70C
:10020000FEE7FEE7FEE7FEE71D160008D90100083D
:10021000D2B201E000F8012B491EFBD27047002248
:10022000F6E710B513460A4604461946FFF7F0FFF5
:10023000204610BD064C074D06E0E06840F0010383
:1002400094E8070098471034AC42F6D3FFF7C8FF94
:10025000CC280008EC280008FEE7000070B5044632
:100260001F4830F81410203050F8240000F048F9EE
:100270001B4B050003F10803A3F10C0033F81450E5
:100280004FF0000200F1140109D06D0823F814505A
:1002900004D1012300F8043021F8142070BD4FF67A
:1002A000FF7606EA450545F0010523F81450B5F53B
:1002B000806FF3D3035D012B0FD0032BEED131F808
:1002C0001430074D5B1C9BB2183521F8143035F8FB
:1002D0001450AB42E2D90255DEE7025570BD000072
:1002E0000400002010B50024E0B2FFF7B7FF641C43
:1002F000042CF9DB10BD7047002240F6B83306E04D
:100300000021491C89B29942FBD3521C92B282420D
:10031000F6D3704770B5044600F004F90546601C3A
:1003200002D004484068044400F0FCF8401BA0429E
:10033000FAD370BD6C0000202DE9FC4FDFF8A0A1BE
:10034000002301250AF1040B03244FF00F0C0BF1DD
:10035000040EBDE005FA03F632406FD04F68012F5E
:1003600005D0022F03D0112F01D0122F17D1D0F8B2
:1003700008905F0004FA07F829EA08090097D1F805
:100380000C8008FA07F848EA0908C0F808804768AE
:10039000B7430E79C6F300169E403E434660C668DA
:1003A0004FEA430804FA08F7BE4301978F6807FA3B
:1003B00008F73743C7604E68022E01D0122E13D1C2
:1003C000DE0800EB86060096366A5F07FF0E0CFA21
:1003D00007F926EA0906D1F8109009FA07F949EA5F
:1003E0000609009EC6F820900668019FBE430F795B
:1003F00007F0030707FA08F7374307604E68F6006F
:1004000065D5384E376E47F001073766366E23F0F4
:10041000030706F001060096334E3E44B146B66827
:100420009F074FEA17780CFA08F7BE43B0F1904FD8
:1004300005D02E4FB84204D1012717E047E000272E
:1004400014E02B4FB84201D102270FE0294FB842E8
:1004500001D103270AE0284FB84201D1042705E063
:10046000264FB84201D1052700E0062707FA08F712
:100470003743C9F80870DAF800605746D1F80480AD
:1004800096435FEAC83800D516433E60DBF800604B
:100490005F46D1F8048096435FEA883800D516435A
:1004A0003E60DEF800607746D1F8048096435FEA4C
:1004B000C82800D516433E60094F0C373E68D1F876
:1004C000048096435FEA882800D516433E605B1C93
:1004D0000A6832FA03F67FF43DAFBDE8FC8F0000F6
:1004E00000040140001002400000014000040048E8
:1004F00000080048000C00480010004800140048A4
:100500000069084000D001207047426921EA0203D7
:100510000A4043EA0241816170470AB18161704734
:100520008162704701488068704700006C000020BD
:100530000248816842681144816070476C00002065
:1005400010B50024032000F065F8002000F008F842
:1005500008B1012401E000F025F8204610BD00009C
:1005600070B50E4E05460024706898B14FF47A714C
:10057000B1FBF0F00A490968B1FBF0F000F0EEFBC6
:1005800040B9102D06D200222946501E00F022F854
:10059000356000E00124204670BD00006C000020A2
:1005A000780000200A4882B0016E41F00101016626
:1005B000016E01F001010091816D41F08051816572
:1005C000806D00F08050009002B000F093B8000001
:1005D00000100240F0B40E4B1B680C46C3F302231C
:1005E000C3F10705042D00D90425191D072901D2DF
:1005F000002300E0DB1E012606FA05F1491E21401A
:1006000099409E40761E16403143F0BC01F015B86B
:100610000CED00E0064900F0070208684FF6FF0302
:10062000184040EA0220034A104308607047000067
:100630000CED00E00000FA052B492C4B0A68322132
:100640004A432B4940B1B0F5007F086829D020F417
:10065000C06040F480602CE00868C0F341200228AC
:1006600004D051F8800F20F4807022E0D1F880008F
:1006700020F48070C1F88000086820F4C06040F465
:1006800000700860B2FBF3F0401C00E0401E4A69B5
:10069000520501D50028F9D1486940050AD5032043
:1006A0007047C0F34120022806D051F8800F40F473
:1006B0008070086000207047D1F8800040F480709E
:1006C000C1F88000086820F4C06040F40070086041
:1006D000B2FBF3F0401C00E0401E4A695205DBD536
:1006E0000028F9D1D8E700007800002040420F0030
:1006F000007000400248816841F480418160704789
:10070000007000402DE9F0470E4605004FF000074D
:1007100025D0DFF8AC81D8F8000000F00F00B0421F
:100720000CD2D8F8001021F00F013143C8F80010A6
:10073000D8F8000000F00F00B04210D12968614CD9
:10074000C80741F2883A5AD06868DFF87C910328DC
:1007500008D0022820682DD0400500282CDB01207D
:10076000BDE8F08720688001F9D5E06800F0030259
:10077000E068C0F30310401C032A19D0534A00BF9D
:10078000B2FBF0F0E268C2F306225043E268C2F323
:100790004162521C5200B0FBF2F0484517D9A068E4
:1007A00010F0F00F0CD0880711D5A86840B10EE00A
:1007B000474AE5E78003D0E700F092F8484506D9BC
:1007C000A06820F0F00040F08000A0608027A068C2
:1007D000696820F003000843A060FFF7A3FE81468C
:1007E00006E000BFFFF79EFEA0EB090151453AD895
:1007F000A068696800F00C00B0EB810FF2D12868A6
:10080000810714D5400703D5A06840F4E060A060DC
:100810002878000705D5A06820F4605040F4E06017
:10082000A060A068A96820F0F000084304E0802FD1
:1008300003D1A06820F0F000A060D8F80010404676
:1008400001F00F01B14216D9016821F00F013143C7
:100850000160FFF767FE074607E000BFFFF762FE93
:10086000C11B514501D903207AE7D8F8000000F0F8
:100870000F00B042F2D12878400705D5A068E9689A
:1008800020F4E0600843A0602878000706D5A0683F
:10089000296920F4605040EAC100A06000F020F80F
:1008A000A1680C4AC1F30311515C01F01F01C8405B
:1008B0000949086009480068BDE8F047FFF750BEE5
:1008C000002002400010024000B4C4040024F400E0
:1008D00000366E01BC280008780000206C00002063
:1008E000184910B58868C0F381021748012A0BD057
:1008F0008A68164BC2F38102022A06D08A68C2F3C4
:100900008102032A03D0002010BD184610BDCA681A
:1009100002F00304CA68C2F30312521C032C02D073
:10092000B0FBF2F001E0B3FBF2F0CA68C968C2F3B1
:1009300006225043C1F34161491C4900B0FBF1F06C
:1009400010BD0000001002400024F40000366E01CB
:100950002DE9F84304007AD02078FA4DC00747D03B
:10096000A868E96800F00C0001F003010C2802D02F
:10097000082817D001E0032914D06068B0F5803F43
:1009800017D0B0F5A02F286817D020F48030286049
:10099000286820F4802028606068E0B1FFF7C2FD7D
:1009A000064614E02868800322D560680028D2D06B
:1009B0001EE0286840F48030EDE740F48020286095
:1009C000F7E700BFFFF7AEFD801B642870D82868EA
:1009D0008003F7D50CE0FFF7A5FD064605E000BF54
:1009E000FFF7A0FD801B6428F0D828688003F7D4A7
:1009F000207880074CD5A868E96800F00C0001F069
:100A000003010C2802D004280DD001E002290AD0ED
:100A1000E068002828682BD040F480702860FFF739
:100A200081FD064619E02868400502D5E0680028E7
:100A300091D06868217C20F0FE4040EA0160686047
:100A4000C1480068FFF78CFD002800D120E076E166
:100A5000FFF768FD801B0228B8D828684005F7D545
:100A60006868217C20F0FE4040EA016068600FE089
:100A700020F480702860FFF755FD064605E000BFB2
:100A8000FFF750FD801B0228A0D828684005F7D446
:100A90002078000729D560690028D5F8940013D084
:100AA00040F00100C5F89400FFF73CFD064606E063
:100AB00090E000BFFFF736FD801B022886D8D5F8EE
:100AC00094008007F6D510E020F00100C5F89400EE
:100AD000FFF728FD064604E0FFF724FD801B0228EF
:100AE00078D8D5F894008007F6D42078400761D5EF
:100AF000A86D0026C00008D4A86D40F08050A865FD
:100B0000A86D012600F08050009090480168C9054A
:100B100011D40168804641F480710160FFF702FD45
:100B2000074604E0FFF7FEFCC01B022852D8D8F8A5
:100B30000000C005F6D5A068012815D00528D5F815
:100B4000900016D020F00100C5F89000D5F8900074
:100B500020F00400C5F89000A06841F28838B8B1D0
:100B6000FFF7E0FC07460EE0D5F8900040F00100EA
:100B7000F0E740F00400C5F89000F5E7FFF7D2FC7D
:100B8000C11B414526D8D5F890008007F6D50CE06A
:100B9000FFF7C8FC074604E0FFF7C4FCC11B414552
:100BA00018D8D5F890008007F6D41EB1A86D20F0B3
:100BB0008050A8652078800629D5A0690028D5F83E
:100BC000980013D040F00100C5F89800FFF7AAFC88
:100BD000064606E077E000BFFFF7A4FC801B022872
:100BE00077D8D5F898008007F6D510E020F00100FE
:100BF000C5F89800FFF796FC064604E0FFF792FC64
:100C0000801B022865D8D5F898008007F6D4E069E3
:100C1000F0B3A968C1F38101032961D002282868D3
:100C200020F0807028600BD0E86820F00300E860B6
:100C3000E86847490840E860FFF774FC04464BE069
:100C4000FFF770FC064604E0FFF76CFC801B0228EF
:100C50003FD828688001F7D4F4E908016FF00F024B
:100C600002EB01110843218A5204490802EB415169
:100C7000A26841EA02210843217D4FF07E424908E3
:100C800002EB41610843217B40EAC160E96800E072
:100C900062E0304A11400843E860286840F0807004
:100CA0002860E86840F08070E860FFF73BFC04468D
:100CB00005E000BFFFF736FC001B022809D82868B2
:100CC0008001F7D548E004E0FFF72CFC001B022868
:100CD00002D90320BDE8F88328688001F4D43BE002
:100CE0000128F7D0E868226A00F00301914226D17A
:100CF000616A00F0F0020901103991421FD1A26A25
:100D000000F4FE41B1EB022F19D194F82C2000F031
:100D10007841B1EBC26F12D1218E00F4C0024908B4
:100D20004905A1F50011914209D194F8341000F061
:100D3000C06049084906A1F1007181420CD0012030
:100D4000C8E70000001002406C0000200070004066
:100D5000FFFFEEFE0C809F010020BBE710B5401E98
:100D6000B0F1807F01D3012010BD4FF0E02460611D
:100D70000F21601700F061FC0020A06107202061B6
:100D8000002010BDFEE7000000B585B014216846C4
:100D9000FFF745FA4FF6FF70009000200321CDE9E0
:100DA0000201019069460248FFF7C6FA05B000BD8E
:100DB0000008004800B585B014216846FFF72FFAF7
:100DC0004FF6FF7000900120019003200390002057
:100DD000029069460248FFF7AFFA05B000BD000077
:100DE0000008004870B5002406462146204600F061
:100DF00003F900F045F94FF49635304600F010F94C
:100E0000641CAC42F9D370BD30B587B0142168467C
:100E1000FFF705FA1E48C16C41F00401C164C16CC2
:100E200001F004010591C16C41F00101C164C16C84
:100E300001F001010591C16C41F00201C164C06C77
:100E4000012500F0020005904FF44870CDE900053F
:100E500000240394694602940E48FFF76DFA2802B5
:100E600003940090CDE901544FF090446946204628
:100E7000FFF762FAFFF79EFFA06940F48070A0615F
:100E800004481830016841F40871016007B030BDB2
:100E90000010024000040048203AD2B2034B02EB9B
:100EA000420203EB021200F019B80000EC16000831
:100EB000F0B50E460746002540F23F1407E02146F4
:100EC0003846FFF7E9FF103C6D1CA4B2761C32785F
:100ED000002A01D0142DF2D3F0BD00002DE9F04717
:100EE00091468A460026044600F086F8DFF84080E6
:100EF000012700BF00F0C4F85FF0000539F81600C4
:100F000007FA05F10842404601D1408800E0008818
:100F100000F086F86D1C102DF0D3641CE4B251462D
:100F2000204600F069F8761C182EE3D3BDE8F08760
:100F30003400002010B5FFF767FF002000F014F820
:100F4000084CA080A088A0F50241303906D000F0FE
:100F500029FA002000F008F8A08010BD00F099F9EF
:100F6000F7E700003400002070B51D490A6842F41C
:100F700000720A600A6842F480720A60184C103CE1
:100F8000226842F020022260164A1060086840F091
:100F90002000086000BF00BF00BF206840F02000B4
:100FA0002060206840F480702060FFF7EDFE4FF075
:100FB0009041886A40F48070886200BF00BF00BF23
:100FC0000848001F006885B2886940F48070886115
:100FD000FFF7F0FE206840F400702060284670BDE6
:100FE000280400481408004801B5BDF80000014974
:100FF000488008BD3400002010B50C460146202072
:1010000000F070F82146BDE81040212000F06AB8D9
:1010100001B5BDF800000149088008BD340000207A
:1010200030B5154B1968154A8CB2116841F400713E
:101030001160124910390D6845F480750D600D6816
:1010400045F020050D601860106840F02000106029
:1010500000BF00BF00BF086840F0200008600868BB
:1010600040F48070086000BF00BF00BF086840F413
:10107000007008601C6030BD140800482804004857
:10108000164A10B51068164983B2086840F400701B
:101090000860086840F480700860114810380468DF
:1010A00044F020040460222414600C6844F02004FE
:1010B0000C6000BF00BF00BF016841F0200101606B
:1010C000016841F48071016000BF00BF00BF01688A
:1010D00041F400710160136010BD00001408004865
:1010E0002804004870B51A4C22681A4B95B21A6849
:1010F00042F400721A601A6842F480721A60154A4B
:10110000103A166846F0200616602060186840F015
:101110002000186000BF00BF00BF106840F0200032
:101120001060106840F4807010602160186840F012
:101130002000186000BF00BF00BF106840F0200012
:101140001060106840F480701060256070BD000071
:10115000140800482804004810B500F025F8044998
:101160004FF47F400860BDE8104000F015B8000063
:101170001408004810B5044600F016F8054830F889
:101180001410103050F82400FFF7BFF9BDE81040EC
:1011900000F002B83C000020002204210148FFF7C3
:1011A000BCB90000000C0048012204210148FFF7EF
:1011B000B4B90000000C0048F0B587B014216846AF
:1011C000FFF72DF82D48C16C41F00401C164C16CDA
:1011D00001F004010591C16C41F02001C164C16CB2
:1011E00001F020010591C16C41F00101C164C16CA5
:1011F00001F001010591C16C41F00201C164C16CB3
:1012000001F002010591C16C41F00801C164C06C9C
:101210001B4E00F008004FF47F4405900022214649
:101220003046FFF77AF9174F002204213846FFF7BE
:1012300074F90125CDE90045002402946946304641
:101240000394FFF779F8CDE9005469464FF09040D8
:101250000294FFF771F80720CDE9000469460A48B7
:101260000294FFF769F804200090CDE90154694623
:1012700038460394FFF760F807B0F0BD0010024055
:1012800000080048000C004800040048FEE7FEE7A4
:10129000704730B501210020FFF724FF4FF47A702A
:1012A000FFF72AF800210120FFF71CFF41F290719F
:1012B0001020FFF717FF4FF41C516020FFF712FFBB
:1012C00001216120FFF70EFF02214620FFF70AFFF0
:1012D00048F210011320FFF705FF48F2FE0112202B
:1012E000FFF700FF4FF4A0610220FFF7FBFE41F281
:1012F00030010320FFF7F6FE40F203342146302090
:10130000FFF7F0FE21463120FFF7ECFE21463220A8
:10131000FFF7E8FEE51E29463320FFF7E3FE032131
:101320003420FFF7DFFE21463520FFF7DBFE1421D6
:101330003620FFF7D7FE21463720FFF7D3FE2146A0
:101340003820FFF7CFFE21463920FFF7CBFE294694
:101350003A20FFF7C7FE03213B20FFF7C3FE2146DB
:101360003C20FFF7BFFE4FF4A0513D20FFF7BAFE2F
:101370004FF400719220FFF7B5FE21469320FFF74E
:10138000B1FE40F60D019020FFF7ACFE41F21801CE
:101390000320FFF7A7FEBDE8304040F2731107209D
:1013A000FFF7A0BE10B543F20801E320FFF79AFE55
:1013B0001221E720FFF796FE41F23121EF20FFF7DF
:1013C00091FE00210120FFF78DFE4FF4E061022025
:1013D000FFF788FE41F230010320FFF783FE002172
:1013E0000420FFF77FFE40F207210820FFF77AFE76
:1013F00000210920FFF776FE00210A20FFF772FE88
:1014000000210C20FFF76EFE00210D20FFF76AFE81
:1014100000210F20FFF766FE00211020FFF762FE7B
:1014200007211120FFF75EFE00211220FFF75AFE70
:1014300000211320FFF756FEC820FEF76BFF41F294
:1014400090611020FFF74EFE40F227211120FFF798
:1014500049FE3220FEF75EFF1D211220FFF742FEFB
:101460003220FEF757FF4FF400611320FFF73AFEDA
:1014700014212920FFF736FE0B212B20FFF732FE27
:101480003220FEF747FF00212020FFF72BFE00212E
:101490002120FFF727FE07213020FFF723FE40F22F
:1014A00007713120FFF71EFE06213220FFF71AFEDA
:1014B00040F204713520FFF715FE41F60471362025
:1014C000FFF710FE04213720FFF70CFE0021382023
:1014D000FFF708FE40F206713920FFF703FE40F2E5
:1014E00001713C20FFF7FEFD0F213D20FFF7FAFDC3
:1014F00000215020FFF7F6FDEF215120FFF7F2FD0C
:1015000000215220FFF7EEFD40F23F115320FFF77C
:10151000E9FD4FF41C516020FFF7E4FD012161203B
:10152000FFF7E0FD00216A20FFF7DCFD00218020AD
:10153000FFF7D8FD00218120FFF7D4FD0021822094
:10154000FFF7D0FD00218320FFF7CCFD0021842090
:10155000FFF7C8FD00218520FFF7C4FD1021902072
:10156000FFF7C0FD00219220FFF7BCFD032193206F
:10157000FFF7B8FD4FF488719520FFF7B3FD002108
:101580009720FFF7AFFD00219820FFF7ABFD41F258
:1015900018010320FFF7A6FDBDE8104040F27311CB
:1015A0000720FFF79FBD704710B5FEF79BFEBDE813
:1015B0001040FEF7BDBF10B594B038216846FEF765
:1015C0002EFE14210EA8FEF72AFE0020FFF734F8A5
:1015D000012000900004032406210190CDE9084178
:1015E00002205521CDE90A1007900C900D90684615
:1015F000FFF7AEF908B172B6FEE70F20CDE90E0491
:10160000002010901190129004210EA8FFF77AF894
:10161000002801D072B6FEE714B010BD054801687D
:1016200041F47001016003494FF0006080390860A7
:101630007047000088ED00E0FEE70907090E00286A
:1016400004DB00F1E02080F80014704700F00F0088
:1016500000F1E02080F8141D704702E008C8121F56
:1016600008C1002AFAD170477047002001E001C18B
:10167000121F002AFBD17047FEF762FFFFF79BFFA6
:10168000FFF79AFDFFF756FC0020FFF7ABFB0020A9
:10169000FFF7AAFC4FF6FF70FFF7BAFCFFF75CFDFF
:1016A000084D4FF47A74287838B9C8210020FFF724
:1016B00061FD2146002000F00FF803A17820FFF71C
:1016C000F7FBF0E7000000202069206C6F766520B2
:1016D000796F752020000000034A22F810100321C2
:1016E0001C3A1154704700001C000020000000004C
:1016F00000000000000000000000000000000000EA
:1017000000000000000000000000000000000000D9
:101710000000000000000000000000000000800148
:1017200080018001800180018001800180018001B1
:1017300080018001800180010000000080018001A3
:101740000000000000000000000000000000000099
:10175000CC00CC00CC00CC00CC00CC0000000000C1
:101760000000000000000000000000000000000079
:101770000000000000000000000000000000000069
:101780000000000000000000600C600C600C3006DF
:101790003006FE1FFE1F300638071803FE1FFE1F0F
:1017A000180318038C018C018C01000000008000DC
:1017B000E003F80F9C0E8C1C8C188C009800F8012C
:1017C000E007800E801C8C188C189C18B80CF00F49
:1017D000E003800080000000000000000000000026
:1017E00000000E181B0C110C110611061103110339
:1017F0009B018E01C038C06C60446044304430446A
:101800001844186C0C380000000000000000E001D3
:10181000F0033807180618063003F001F000F8004E
:101820009C310E33061E061C061C063FFC73F0217D
:1018300000000000000000000000000000000000A8
:101840000C000C000C000C000C000C000000000050
:101850000000000000000000000000000000000088
:101860000000000000000000000000000000000276
:1018700000038001C000C000600060003000300044
:101880003000300030003000300030006000600078
:10189000C000C00080010003000200000000200022
:1018A0006000C00080018001000300030006000604
:1018B00000060006000600060006000600030003FE
:1018C00080018001C00060002000000000000000D6
:1018D0000000000000000000C000C000D806F807AB
:1018E000E0013003380700000000000000000000A5
:1018F00000000000000000000000000000000000E8
:1019000000000000000000008001800180018001D3
:101910008001FC3FFC3F800180018001800180014B
:1019200000000000000000000000000000000000B7
:1019300000000000000000000000000000000000A7
:101940000000000000000000000000000000800116
:101950008001000100018000000000000000000084
:101960000000000000000000000000000000000077
:1019700000000000E007E007000000000000000099
:101980000000000000000000000000000000000057
:101990000000000000000000000000000000000047
:1019A0000000000000000000000000000000C00077
:1019B000C000000000000000000000000000000C5B
:1019C000000C00060006000600030003000380036D
:1019D000800180018001C000C000C0006000600084
:1019E0000000000000000000000000000000E00314
:1019F000F007380E180C0C180C180C180C180C18D2
:101A00000C180C180C180C18180C380EF007E00302
:101A100000000000000000000000000000000001C5
:101A20008001C001F00198018801800180018001DE
:101A3000800180018001800180018001800180019E
:101A40000000000000000000000000000000E003B3
:101A5000F80F180C0C180C1800180018000C0006D1
:101A600000038001C000600030001800FC1FFC1F54
:101A70000000000000000000000000000000E00185
:101A8000F807180E0C0C0C0C000C0006C003C00765
:101A9000000C001800180C180C18180CF807E003BC
:101AA0000000000000000000000000000000000C2A
:101AB000000E000F000F800DC00C600C600C300C8D
:101AC000180C0C0CFC3FFC3F000C000C000C000C34
:101AD0000000000000000000000000000000F80FFF
:101AE000F80F180018000C00EC03FC071C0E001C7B
:101AF0000018001800180C181C0C180EF807E0034A
:101B00000000000000000000000000000000C0070E
:101B1000F00F381C181818000C00CC03EC0F3C0E0A
:101B20001C1C0C180C180C18181C380EF007E003BD
:101B30000000000000000000000000000000FC1F8A
:101B4000FC1F000C00060006000380038001C0019A
:101B5000C000E00060006000700030003000300025
:101B60000000000000000000000000000000E00392
:101B7000F007380E180C180C180C3806F007F00790
:101B8000180C0C180C180C180C18380CF80FE00373
:101B90000000000000000000000000000000E00362
:101BA000F007380E1C0C0C180C180C181C1C381ED6
:101BB000F81BE0190018000C000C1C0EF807F001CF
:101BC0000000000000000000000000000000000015
:101BD0000000000000000000800180010000000003
:101BE00000000000000000000000000080018001F3
:101BF00000000000000000000000000000000000E5
:101C000000000000000000008001800100000000D2
:101C100000000000000000000000000080018001C2
:101C20000001000180000000000000000000000032
:101C30000000000000000000000000000010001C78
:101C4000800FE003F8001800F800E003800F001C8C
:101C50000010000000000000000000000000000074
:101C6000000000000000000000000000F81F00005D
:101C700000000000F81F000000000000000000004D
:101C80000000000000000000000000000000000054
:101C90000000000000000000000000000800380004
:101CA000F001C007001F0018001FC007F001380036
:101CB0000800000000000000000000000000E00339
:101CC000F80F180C0C180C180018000C0006000374
:101CD0008001C000C000C00000000000C000C000C3
:101CE00000000000000000000000000000000000F4
:101CF000E00718180420C229224A11440944094463
:101D0000094409221113E20C024004201818E007CC
:101D10000000000000000000000000000000800340
:101D20008003C006C006C006600C600C3018301876
:101D30003018F83FF83F1C700C600C6006C006C0FD
:101D40000000000000000000000000000000FC0394
:101D5000FC0F0C0C0C180C180C180C0CFC07FC0FCE
:101D60000C180C300C300C300C300C18FC1FFC071D
:101D70000000000000000000000000000000C0079C
:101D8000F01F38381C300C70066006000600060094
:101D900006000600060006600C701C30F01FE0070D
:101DA0000000000000000000000000000000FE0332
:101DB000FE0F060E061806180630063006300630EE
:101DC00006300630063006180618060EFE0FFE0313
:101DD0000000000000000000000000000000FC3FC8
:101DE000FC3F0C000C000C000C000C00FC1FFC1F46
:101DF0000C000C000C000C000C000C00FC3FFC3F25
:101E00000000000000000000000000000000F83F9B
:101E1000F83F18001800180018001800F81FF81FE5
:101E200018001800180018001800180018001800F2
:101E30000000000000000000000000000000E00FB3
:101E4000F83F3C780E6006E007C00300030003FE85
:101E500003FE03C007C006C00EC03CF0F83FE00F11
:101E600000000000000000000000000000000C3036
:101E70000C300C300C300C300C300C30FC3FFC3F84
:101E80000C300C300C300C300C300C300C300C3072
:101E900000000000000000000000000000008001C1
:101EA000800180018001800180018001800180012A
:101EB000800180018001800180018001800180011A
:101EC000000000000000000000000000000000060C
:101ED00000060006000600060006000600060006D2
:101EE000000600060006180618063807F003E00191
:101EF00000000000000000000000000000000630AC
:101F00000618060C060606038601C6006600760063
:101F1000DE008E0106030606060C06180630066073
:101F20000000000000000000000000000000180099
:101F300018001800180018001800180018001800E1
:101F4000180018001800180018001800F81FF81FD3
:101F500000000000000000000000000000000EE093
:101F60001EF01EF01EF036D836D836D836D866CCDD
:101F700066CC66CCC6C6C6C6C6C6C6C686C386C33B
:101F800000000000000000000000000000000C3015
:101F90001C303C303C306C306C30CC30CC308C3130
:101FA0000C330C330C360C360C3C0C3C0C380C301F
:101FB0000000000000000000000000000000E0073A
:101FC000F81F1C380E70066003C003C003C003C0B6
:101FD00003C003C003C006600E701C38F81FE00782
:101FE0000000000000000000000000000000FC0FE6
:101FF000FC1F0C380C300C300C300C300C18FC1F53
:10200000FC070C000C000C000C000C000C000C0079
:102010000000000000000000000000000000E007D9
:10202000F81F1C380E70066003E003C003C003C035
:1020300003C003C007E006630E3F1C3CF83FE0F717
:1020400000C0000000000000000000000000FE0FC3
:10205000FE1F06380630063006300638FE1FFE0723
:1020600006030606060C061806180630063006603B
:102070000000000000000000000000000000E0037D
:10208000F80F1C0C0C180C180C001C00F803E00FC7
:10209000001E0038063006300E301C1CF80FE0071A
:1020A0000000000000000000000000000000FE7FB3
:1020B000FE7F80018001800180018001800180011C
:1020C0008001800180018001800180018001800108
:1020D00000000000000000000000000000000C30C4
:1020E0000C300C300C300C300C300C300C300C3010
:1020F0000C300C300C300C300C301818F81FE00786
:10210000000000000000000000000000000003606C
:102110000630063006300C180C180C18180C180C69
:10212000380E30063006700760036003C001C0013E
:10213000000000000000000000000000000003603C
:10214000C361C361C3616633663366336633663326
:1021500066336C1B6C1B6C1B2C1A3C1E380E380E25
:1021600000000000000000000000000000000FE080
:102170000C7018303018700C600EC007800380039C
:10218000C003E006700C301C18180C300E6007E01D
:10219000000000000000000000000000000003C07C
:1021A00006600C301C383818300C6006E007C0039D
:1021B0008001800180018001800180018001800117
:1021C0000000000000000000000000000000FC7F94
:1021D000FC7F006000300018000C00060003800146
:1021E000C0006000300018000C000600FE7FFE7F7B
:1021F0000000000000000000000000000000E003FC
:10220000E00360006000600060006000600060004B
:1022100060006000600060006000600060006000BE
:10222000600060006000E003E00300000000300098
:102230003000600060006000C000C000C000C0014D
:1022400080018001800100030003000300060006F6
:102250000000000000000000000000000000E0039B
:10226000E003000300030003000300030003000376
:102270000003000300030003000300030003000346
:10228000000300030003E003E0030000000000007F
:10229000C001C00160036003600330063006180C03
:1022A000180C00000000000000000000000000000A
:1022B000000000000000000000000000000000001E
:1022C000000000000000000000000000000000000E
:1022D0000000000000000000000000000000FFFF00
:1022E000FFFF0000000000000000000000000C00E4
:1022F0000C000C000C000C000C00000000000000A2
:1023000000000000000000000000000000000000CD
:1023100000000000000000000000000000000000BD
:102320000000000000000000F003F8071C0C0C0C7B
:10233000000FF00FF80C0C0C0C0C1C0FF80FF01821
:102340000000000000000000000000000000180075
:102350001800180018001800D803F80F380C1818C7
:1023600018181818181818181818380CF80FD80357
:10237000000000000000000000000000000000005D
:102380000000000000000000C003F007300E180C31
:102390001800180018001800180C300EF007C003C1
:1023A0000000000000000000000000000000001815
:1023B0000018001800180018C01BF01F301C181857
:1023C00018181818181818181818301CF01FC01BE7
:1023D00000000000000000000000000000000000FD
:1023E0000000000000000000C003F00F300C1818BF
:1023F000F81FF81F180018003818301CF00FC0071D
:102400000000000000000000000000000000800F3D
:10241000C00FC000C000C000F007F007C000C0003F
:10242000C000C000C000C000C000C000C000C000AC
:10243000000000000000000000000000000000009C
:102440000000000000000000E00DF80F180E0C0C5A
:102450000C0C0C0C0C0C0C0C0C0C180EF80FE00DEA
:10246000000C0C0C1C06F807F0010000000018001E
:102470001800180018001800D807F80F381C181892
:1024800018181818181818181818181818181818CC
:102490000000000000000000000000000000C0007C
:1024A000C000000000000000C000C000C000C0006C
:1024B000C000C000C000C000C000C000C000C0001C
:1024C0000000000000000000000000000000C0004C
:1024D000C000000000000000C000C000C000C0003C
:1024E000C000C000C000C000C000C000C000C000EC
:1024F000C000C000C000F8007800000000000C0020
:102500000C000C000C000C000C0C0C060C038C01D5
:10251000CC006C00FC009C018C030C030C060C0C22
:102520000000000000000000000000000000C000EB
:10253000C000C000C000C000C000C000C000C0009B
:10254000C000C000C000C000C000C000C000C0008B
:10255000000000000000000000000000000000007B
:1025600000000000000000007C3CFF7EC7E383C148
:1025700083C183C183C183C183C183C183C183C13B
:10258000000000000000000000000000000000004B
:1025900000000000000000009807F80F381C181811
:1025A00018181818181818181818181818181818AB
:1025B000000000000000000000000000000000001B
:1025C0000000000000000000C003F00F300C1818DD
:1025D00018181818181818181818300CF00FC0030D
:1025E00000000000000000000000000000000000EB
:1025F0000000000000000000D803F80F380C181885
:1026000018181818181818181818380CF80FD803B4
:102610001800180018001800180000000000000042
:102620000000000000000000C01BF01F301C181844
:1026300018181818181818181818301CF01FC01B74
:102640000018001800180018001800000000000012
:102650000000000000000000B007F0037000300030
:1026600030003000300030003000300030003000EA
:10267000000000000000000000000000000000005A
:102680000000000000000000E003F003380E180C0A
:102690003800F003C007000C180C380EF007E003F8
:1026A000000000000000000000000000000000002A
:1026B0008000C000C000C000F007F007C000C000EC
:1026C000C000C000C000C000C000C000C00780073C
:1026D00000000000000000000000000000000000FA
:1026E000000000000000000018181818181818182A
:1026F00018181818181818181818381CF01FE0198E
:1027000000000000000000000000000000000000C9
:1027100000000000000000000C18180C180C180C29
:10272000300630063006600360036003C001C0015C
:102730000000000000000000000000000000000099
:102740000000000000000000C141C141C36163639B
:10275000636363633636363636361C1C1C1C1C1C01
:102760000000000000000000000000000000000069
:1027700000000000000000001C38381C300C60060F
:1027800060036003600360036006300C381C1C3873
:102790000000000000000000000000000000000039
:1027A00000000000000000001830301830187018C9
:1027B000600C600CE00CC006C00680038003800340
:1027C00080018001C001F0007000000000000000E6
:1027D0000000000000000000FC1FFC1F000C0006B1
:1027E00000038001C000600030001800FC1FFC1FC7
:1027F00000000000000000000000000000000003D6
:102800008001C000C000C000C000C000C000600067
:102810006000300060004000C000C000C000C00088
:10282000C000C00080010003000000000000800123
:102830008001800180018001800180018001800190
:102840008001800180018001800180018001800180
:102850008001800180018001800100000000600093
:10286000C000C0018001800180018001800100035F
:102870000003000600030001800180018001800147
:1028800080018001C0006000000000000000000026
:10289000000000000000000000000000F010F81F21
:1028A000080F000000000000000000000000000011
:1028B0000000000000000000000000000000000018
:1028C000000000000102030406070809EC280008C4
:1028D000000000207C0000005A160008682900084B
:1028E0007C000020040400006A16000800000000BC
:1028F00001000200040001000000000000000000D0
:1029000000000000000000000000000000000000C7
:10291000000400480004004800040048000000488B
:102920000000FFFF0000000000010002000400089A
:102930000010002000400080000800480008004807
:102940000008004800080048000800480008004847
:1029500000080048000800481000000001000000C6
:08296000000000000024F40057
:04000005080001D915
:00000001FF
